{
  "_format": "hh-sol-artifact-1",
  "contractName": "LazyMinting",
  "sourceName": "src/backend/contracts/LazyMinting.sol",
  "abi": [
    {
      "inputs": [],
      "stateMutability": "nonpayable",
      "type": "constructor"
    },
    {
      "anonymous": false,
      "inputs": [
        {
          "indexed": true,
          "internalType": "address",
          "name": "owner",
          "type": "address"
        },
        {
          "indexed": true,
          "internalType": "address",
          "name": "approved",
          "type": "address"
        },
        {
          "indexed": true,
          "internalType": "uint256",
          "name": "tokenId",
          "type": "uint256"
        }
      ],
      "name": "Approval",
      "type": "event"
    },
    {
      "anonymous": false,
      "inputs": [
        {
          "indexed": true,
          "internalType": "address",
          "name": "owner",
          "type": "address"
        },
        {
          "indexed": true,
          "internalType": "address",
          "name": "operator",
          "type": "address"
        },
        {
          "indexed": false,
          "internalType": "bool",
          "name": "approved",
          "type": "bool"
        }
      ],
      "name": "ApprovalForAll",
      "type": "event"
    },
    {
      "anonymous": false,
      "inputs": [
        {
          "indexed": true,
          "internalType": "address",
          "name": "previousOwner",
          "type": "address"
        },
        {
          "indexed": true,
          "internalType": "address",
          "name": "newOwner",
          "type": "address"
        }
      ],
      "name": "OwnershipTransferred",
      "type": "event"
    },
    {
      "anonymous": false,
      "inputs": [
        {
          "indexed": true,
          "internalType": "bytes32",
          "name": "role",
          "type": "bytes32"
        },
        {
          "indexed": true,
          "internalType": "bytes32",
          "name": "previousAdminRole",
          "type": "bytes32"
        },
        {
          "indexed": true,
          "internalType": "bytes32",
          "name": "newAdminRole",
          "type": "bytes32"
        }
      ],
      "name": "RoleAdminChanged",
      "type": "event"
    },
    {
      "anonymous": false,
      "inputs": [
        {
          "indexed": true,
          "internalType": "bytes32",
          "name": "role",
          "type": "bytes32"
        },
        {
          "indexed": true,
          "internalType": "address",
          "name": "account",
          "type": "address"
        },
        {
          "indexed": true,
          "internalType": "address",
          "name": "sender",
          "type": "address"
        }
      ],
      "name": "RoleGranted",
      "type": "event"
    },
    {
      "anonymous": false,
      "inputs": [
        {
          "indexed": true,
          "internalType": "bytes32",
          "name": "role",
          "type": "bytes32"
        },
        {
          "indexed": true,
          "internalType": "address",
          "name": "account",
          "type": "address"
        },
        {
          "indexed": true,
          "internalType": "address",
          "name": "sender",
          "type": "address"
        }
      ],
      "name": "RoleRevoked",
      "type": "event"
    },
    {
      "anonymous": false,
      "inputs": [
        {
          "indexed": true,
          "internalType": "address",
          "name": "from",
          "type": "address"
        },
        {
          "indexed": true,
          "internalType": "address",
          "name": "to",
          "type": "address"
        },
        {
          "indexed": true,
          "internalType": "uint256",
          "name": "tokenId",
          "type": "uint256"
        }
      ],
      "name": "Transfer",
      "type": "event"
    },
    {
      "anonymous": false,
      "inputs": [
        {
          "indexed": false,
          "internalType": "address",
          "name": "signer",
          "type": "address"
        },
        {
          "indexed": false,
          "internalType": "address",
          "name": "minter",
          "type": "address"
        },
        {
          "indexed": false,
          "internalType": "string",
          "name": "uri",
          "type": "string"
        },
        {
          "indexed": false,
          "internalType": "uint256",
          "name": "tokenId",
          "type": "uint256"
        }
      ],
      "name": "handleLazyMint",
      "type": "event"
    },
    {
      "inputs": [],
      "name": "DEFAULT_ADMIN_ROLE",
      "outputs": [
        {
          "internalType": "bytes32",
          "name": "",
          "type": "bytes32"
        }
      ],
      "stateMutability": "view",
      "type": "function"
    },
    {
      "inputs": [
        {
          "internalType": "address",
          "name": "to",
          "type": "address"
        },
        {
          "internalType": "uint256",
          "name": "tokenId",
          "type": "uint256"
        }
      ],
      "name": "approve",
      "outputs": [],
      "stateMutability": "nonpayable",
      "type": "function"
    },
    {
      "inputs": [
        {
          "internalType": "address",
          "name": "owner",
          "type": "address"
        }
      ],
      "name": "balanceOf",
      "outputs": [
        {
          "internalType": "uint256",
          "name": "",
          "type": "uint256"
        }
      ],
      "stateMutability": "view",
      "type": "function"
    },
    {
      "inputs": [
        {
          "internalType": "uint256",
          "name": "tokenId",
          "type": "uint256"
        }
      ],
      "name": "getApproved",
      "outputs": [
        {
          "internalType": "address",
          "name": "",
          "type": "address"
        }
      ],
      "stateMutability": "view",
      "type": "function"
    },
    {
      "inputs": [
        {
          "internalType": "bytes32",
          "name": "role",
          "type": "bytes32"
        }
      ],
      "name": "getRoleAdmin",
      "outputs": [
        {
          "internalType": "bytes32",
          "name": "",
          "type": "bytes32"
        }
      ],
      "stateMutability": "view",
      "type": "function"
    },
    {
      "inputs": [
        {
          "internalType": "bytes32",
          "name": "role",
          "type": "bytes32"
        },
        {
          "internalType": "address",
          "name": "account",
          "type": "address"
        }
      ],
      "name": "grantRole",
      "outputs": [],
      "stateMutability": "nonpayable",
      "type": "function"
    },
    {
      "inputs": [
        {
          "internalType": "bytes32",
          "name": "role",
          "type": "bytes32"
        },
        {
          "internalType": "address",
          "name": "account",
          "type": "address"
        }
      ],
      "name": "hasRole",
      "outputs": [
        {
          "internalType": "bool",
          "name": "",
          "type": "bool"
        }
      ],
      "stateMutability": "view",
      "type": "function"
    },
    {
      "inputs": [
        {
          "internalType": "address",
          "name": "owner",
          "type": "address"
        },
        {
          "internalType": "address",
          "name": "operator",
          "type": "address"
        }
      ],
      "name": "isApprovedForAll",
      "outputs": [
        {
          "internalType": "bool",
          "name": "",
          "type": "bool"
        }
      ],
      "stateMutability": "view",
      "type": "function"
    },
    {
      "inputs": [
        {
          "components": [
            {
              "internalType": "address",
              "name": "signerAddress",
              "type": "address"
            },
            {
              "internalType": "string",
              "name": "title",
              "type": "string"
            },
            {
              "internalType": "string",
              "name": "description",
              "type": "string"
            },
            {
              "internalType": "string",
              "name": "userId",
              "type": "string"
            },
            {
              "internalType": "string",
              "name": "uri",
              "type": "string"
            },
            {
              "internalType": "bytes",
              "name": "signature",
              "type": "bytes"
            }
          ],
          "internalType": "struct LazyMinting.NFTVoucher",
          "name": "voucher",
          "type": "tuple"
        }
      ],
      "name": "lazyMint",
      "outputs": [
        {
          "internalType": "uint256",
          "name": "",
          "type": "uint256"
        }
      ],
      "stateMutability": "nonpayable",
      "type": "function"
    },
    {
      "inputs": [],
      "name": "name",
      "outputs": [
        {
          "internalType": "string",
          "name": "",
          "type": "string"
        }
      ],
      "stateMutability": "view",
      "type": "function"
    },
    {
      "inputs": [],
      "name": "owner",
      "outputs": [
        {
          "internalType": "address",
          "name": "",
          "type": "address"
        }
      ],
      "stateMutability": "view",
      "type": "function"
    },
    {
      "inputs": [
        {
          "internalType": "uint256",
          "name": "tokenId",
          "type": "uint256"
        }
      ],
      "name": "ownerOf",
      "outputs": [
        {
          "internalType": "address",
          "name": "",
          "type": "address"
        }
      ],
      "stateMutability": "view",
      "type": "function"
    },
    {
      "inputs": [],
      "name": "renounceOwnership",
      "outputs": [],
      "stateMutability": "nonpayable",
      "type": "function"
    },
    {
      "inputs": [
        {
          "internalType": "bytes32",
          "name": "role",
          "type": "bytes32"
        },
        {
          "internalType": "address",
          "name": "account",
          "type": "address"
        }
      ],
      "name": "renounceRole",
      "outputs": [],
      "stateMutability": "nonpayable",
      "type": "function"
    },
    {
      "inputs": [
        {
          "internalType": "bytes32",
          "name": "role",
          "type": "bytes32"
        },
        {
          "internalType": "address",
          "name": "account",
          "type": "address"
        }
      ],
      "name": "revokeRole",
      "outputs": [],
      "stateMutability": "nonpayable",
      "type": "function"
    },
    {
      "inputs": [
        {
          "internalType": "address",
          "name": "from",
          "type": "address"
        },
        {
          "internalType": "address",
          "name": "to",
          "type": "address"
        },
        {
          "internalType": "uint256",
          "name": "tokenId",
          "type": "uint256"
        }
      ],
      "name": "safeTransferFrom",
      "outputs": [],
      "stateMutability": "nonpayable",
      "type": "function"
    },
    {
      "inputs": [
        {
          "internalType": "address",
          "name": "from",
          "type": "address"
        },
        {
          "internalType": "address",
          "name": "to",
          "type": "address"
        },
        {
          "internalType": "uint256",
          "name": "tokenId",
          "type": "uint256"
        },
        {
          "internalType": "bytes",
          "name": "data",
          "type": "bytes"
        }
      ],
      "name": "safeTransferFrom",
      "outputs": [],
      "stateMutability": "nonpayable",
      "type": "function"
    },
    {
      "inputs": [
        {
          "internalType": "address",
          "name": "operator",
          "type": "address"
        },
        {
          "internalType": "bool",
          "name": "approved",
          "type": "bool"
        }
      ],
      "name": "setApprovalForAll",
      "outputs": [],
      "stateMutability": "nonpayable",
      "type": "function"
    },
    {
      "inputs": [
        {
          "internalType": "bytes4",
          "name": "interfaceId",
          "type": "bytes4"
        }
      ],
      "name": "supportsInterface",
      "outputs": [
        {
          "internalType": "bool",
          "name": "",
          "type": "bool"
        }
      ],
      "stateMutability": "view",
      "type": "function"
    },
    {
      "inputs": [],
      "name": "symbol",
      "outputs": [
        {
          "internalType": "string",
          "name": "",
          "type": "string"
        }
      ],
      "stateMutability": "view",
      "type": "function"
    },
    {
      "inputs": [
        {
          "internalType": "uint256",
          "name": "tokenId",
          "type": "uint256"
        }
      ],
      "name": "tokenURI",
      "outputs": [
        {
          "internalType": "string",
          "name": "",
          "type": "string"
        }
      ],
      "stateMutability": "view",
      "type": "function"
    },
    {
      "inputs": [],
      "name": "totalSupply",
      "outputs": [
        {
          "internalType": "uint256",
          "name": "",
          "type": "uint256"
        }
      ],
      "stateMutability": "view",
      "type": "function"
    },
    {
      "inputs": [
        {
          "internalType": "address",
          "name": "from",
          "type": "address"
        },
        {
          "internalType": "address",
          "name": "to",
          "type": "address"
        },
        {
          "internalType": "uint256",
          "name": "tokenId",
          "type": "uint256"
        }
      ],
      "name": "transferFrom",
      "outputs": [],
      "stateMutability": "nonpayable",
      "type": "function"
    },
    {
      "inputs": [
        {
          "internalType": "address",
          "name": "newOwner",
          "type": "address"
        }
      ],
      "name": "transferOwnership",
      "outputs": [],
      "stateMutability": "nonpayable",
      "type": "function"
    }
  ],
  "bytecode": "0x6101406040523480156200001257600080fd5b5060405180604001604052806009815260200168109b1a5b99cb53919560ba1b815250604051806040016040528060018152602001603160f81b815250604051806040016040528060098152602001681093125391c813919560ba1b81525060405180604001604052806003815260200162424c4760e81b8152508160009080519060200190620000a5929190620001be565b508051620000bb906001906020840190620001be565b5050825160208085019190912083518483012060e08290526101008190524660a0818152604080517f8b73c3c69bb8fe3d512ecc4cf759cc79239f7b179b0ffacaa9a75d522b39400f81880181905281830187905260608201869052608082019490945230818401528151808203909301835260c0019052805194019390932091935091906080523060601b60c0526101205250620001669250620001609150503390565b6200016c565b620002a1565b600880546001600160a01b038381166001600160a01b0319831681179093556040519116919082907f8be0079c531659141344cd1fd0a4f28419497f9722a3daafe3b4186f6b6457e090600090a35050565b828054620001cc9062000264565b90600052602060002090601f016020900481019282620001f057600085556200023b565b82601f106200020b57805160ff19168380011785556200023b565b828001600101855582156200023b579182015b828111156200023b5782518255916020019190600101906200021e565b50620002499291506200024d565b5090565b5b808211156200024957600081556001016200024e565b600181811c908216806200027957607f821691505b602082108114156200029b57634e487b7160e01b600052602260045260246000fd5b50919050565b60805160a05160c05160601c60e051610100516101205161253d620002f46000396000611c7b01526000611cca01526000611ca501526000611bfe01526000611c2801526000611c52015261253d6000f3fe608060405234801561001057600080fd5b50600436106101585760003560e01c806370a08231116100c3578063a22cb4651161007c578063a22cb465146102d0578063b88d4fde146102e3578063c87b56dd146102f6578063d547741f14610309578063e985e9c51461031c578063f2fde38b1461035857600080fd5b806370a0823114610281578063715018a6146102945780638da5cb5b1461029c57806391d14854146102ad57806395d89b41146102c0578063a217fddf146102c857600080fd5b8063248a9ca311610115578063248a9ca3146101ff5780632f2ff15d1461022257806336568abe1461023557806342842e0e146102485780634a6287eb1461025b5780636352211e1461026e57600080fd5b806301ffc9a71461015d57806306fdde0314610185578063081812fc1461019a578063095ea7b3146101c557806318160ddd146101da57806323b872dd146101ec575b600080fd5b61017061016b3660046120b3565b61036b565b60405190151581526020015b60405180910390f35b61018d61038b565b60405161017c9190612292565b6101ad6101a8366004612079565b61041d565b6040516001600160a01b03909116815260200161017c565b6101d86101d3366004612050565b610444565b005b6009545b60405190815260200161017c565b6101d86101fa366004611f06565b61055f565b6101de61020d366004612079565b60009081526007602052604090206001015490565b6101d8610230366004612091565b610590565b6101d8610243366004612091565b6105b5565b6101d8610256366004611f06565b610633565b6101de6102693660046120eb565b61064e565b6101ad61027c366004612079565b61078b565b6101de61028f366004611eba565b6107eb565b6101d8610871565b6008546001600160a01b03166101ad565b6101706102bb366004612091565b610885565b61018d6108b0565b6101de600081565b6101d86102de366004612016565b6108bf565b6101d86102f1366004611f41565b6108ca565b61018d610304366004612079565b610902565b6101d8610317366004612091565b610a13565b61017061032a366004611ed4565b6001600160a01b03918216600090815260056020908152604080832093909416825291909152205460ff1690565b6101d8610366366004611eba565b610a38565b600061037682610ab1565b80610385575061038582610b01565b92915050565b60606000805461039a90612445565b80601f01602080910402602001604051908101604052809291908181526020018280546103c690612445565b80156104135780601f106103e857610100808354040283529160200191610413565b820191906000526020600020905b8154815290600101906020018083116103f657829003601f168201915b5050505050905090565b600061042882610b26565b506000908152600460205260409020546001600160a01b031690565b600061044f8261078b565b9050806001600160a01b0316836001600160a01b031614156104c25760405162461bcd60e51b815260206004820152602160248201527f4552433732313a20617070726f76616c20746f2063757272656e74206f776e656044820152603960f91b60648201526084015b60405180910390fd5b336001600160a01b03821614806104de57506104de813361032a565b6105505760405162461bcd60e51b815260206004820152603e60248201527f4552433732313a20617070726f76652063616c6c6572206973206e6f7420746f60448201527f6b656e206f776e6572206e6f7220617070726f76656420666f7220616c6c000060648201526084016104b9565b61055a8383610b85565b505050565b6105693382610bf3565b6105855760405162461bcd60e51b81526004016104b9906122f7565b61055a838383610c71565b6000828152600760205260409020600101546105ab81610e0d565b61055a8383610e17565b6001600160a01b03811633146106255760405162461bcd60e51b815260206004820152602f60248201527f416363657373436f6e74726f6c3a2063616e206f6e6c792072656e6f756e636560448201526e103937b632b9903337b91039b2b63360891b60648201526084016104b9565b61062f8282610e9d565b5050565b61055a838383604051806020016040528060008152506108ca565b60008061065a83610f04565b90506001600160a01b0381166106736020850185611eba565b6001600160a01b0316146106ba5760405162461bcd60e51b815260206004820152600e60248201526d11985a5b1959081d1bc81b5a5b9d60921b60448201526064016104b9565b600980549060006106ca83612480565b91905055506106db33600954610f64565b600954610729906106ef608086018661238a565b8080601f016020809104026020016040519081016040528093929190818152602001838380828437600092019190915250610f7e92505050565b7f22a703ecacac15a8221e7c517c83bb6fc160ec72b6303d7031d51aaaec517af66107576020850185611eba565b33610765608087018761238a565b600954604051610779959493929190612203565b60405180910390a15050600954919050565b6000818152600260205260408120546001600160a01b0316806103855760405162461bcd60e51b8152602060048201526018602482015277115490cdcc8c4e881a5b9d985b1a59081d1bdad95b88125160421b60448201526064016104b9565b60006001600160a01b0382166108555760405162461bcd60e51b815260206004820152602960248201527f4552433732313a2061646472657373207a65726f206973206e6f7420612076616044820152683634b21037bbb732b960b91b60648201526084016104b9565b506001600160a01b031660009081526003602052604090205490565b610879611018565b6108836000611072565b565b60009182526007602090815260408084206001600160a01b0393909316845291905290205460ff1690565b60606001805461039a90612445565b61062f3383836110c4565b6108d43383610bf3565b6108f05760405162461bcd60e51b81526004016104b9906122f7565b6108fc84848484611193565b50505050565b606061090d82610b26565b6000828152600660205260408120805461092690612445565b80601f016020809104026020016040519081016040528092919081815260200182805461095290612445565b801561099f5780601f106109745761010080835404028352916020019161099f565b820191906000526020600020905b81548152906001019060200180831161098257829003601f168201915b5050505050905060006109bd60408051602081019091526000815290565b90508051600014156109d0575092915050565b815115610a025780826040516020016109ea92919061215f565b60405160208183030381529060405292505050919050565b610a0b846111c6565b949350505050565b600082815260076020526040902060010154610a2e81610e0d565b61055a8383610e9d565b610a40611018565b6001600160a01b038116610aa55760405162461bcd60e51b815260206004820152602660248201527f4f776e61626c653a206e6577206f776e657220697320746865207a65726f206160448201526564647265737360d01b60648201526084016104b9565b610aae81611072565b50565b60006001600160e01b031982166380ac58cd60e01b1480610ae257506001600160e01b03198216635b5e139f60e01b145b8061038557506301ffc9a760e01b6001600160e01b0319831614610385565b60006001600160e01b03198216637965db0b60e01b1480610385575061038582610ab1565b6000818152600260205260409020546001600160a01b0316610aae5760405162461bcd60e51b8152602060048201526018602482015277115490cdcc8c4e881a5b9d985b1a59081d1bdad95b88125160421b60448201526064016104b9565b600081815260046020526040902080546001600160a01b0319166001600160a01b0384169081179091558190610bba8261078b565b6001600160a01b03167f8c5be1e5ebec7d5bd14f71427d1e84f3dd0314c0f7b2291e5b200ac8c7c3b92560405160405180910390a45050565b600080610bff8361078b565b9050806001600160a01b0316846001600160a01b03161480610c4657506001600160a01b0380821660009081526005602090815260408083209388168352929052205460ff165b80610a0b5750836001600160a01b0316610c5f8461041d565b6001600160a01b031614949350505050565b826001600160a01b0316610c848261078b565b6001600160a01b031614610ce85760405162461bcd60e51b815260206004820152602560248201527f4552433732313a207472616e736665722066726f6d20696e636f72726563742060448201526437bbb732b960d91b60648201526084016104b9565b6001600160a01b038216610d4a5760405162461bcd60e51b8152602060048201526024808201527f4552433732313a207472616e7366657220746f20746865207a65726f206164646044820152637265737360e01b60648201526084016104b9565b610d55600082610b85565b6001600160a01b0383166000908152600360205260408120805460019290610d7e9084906123eb565b90915550506001600160a01b0382166000908152600360205260408120805460019290610dac9084906123a0565b909155505060008181526002602052604080822080546001600160a01b0319166001600160a01b0386811691821790925591518493918716917fddf252ad1be2c89b69c2b068fc378daa952ba7f163c4a11628f55a4df523b3ef91a4505050565b610aae8133611239565b610e218282610885565b61062f5760008281526007602090815260408083206001600160a01b03851684529091529020805460ff19166001179055610e593390565b6001600160a01b0316816001600160a01b0316837f2f8788117e7eff1d82e926ec794901d17c78024a50270940304540a733656f0d60405160405180910390a45050565b610ea78282610885565b1561062f5760008281526007602090815260408083206001600160a01b0385168085529252808320805460ff1916905551339285917ff6391f5c32d9c69d2a47ea670b442974b53935d1edc7fd64eb21e047a839171b9190a45050565b600080610f108361129d565b9050610f5d81610f2360a0860186612345565b8080601f0160208091040260200160405190810160405280939291908181526020018383808284376000920191909152506113ba92505050565b9392505050565b61062f8282604051806020016040528060008152506113de565b6000828152600260205260409020546001600160a01b0316610ff95760405162461bcd60e51b815260206004820152602e60248201527f45524337323155524953746f726167653a2055524920736574206f66206e6f6e60448201526d32bc34b9ba32b73a103a37b5b2b760911b60648201526084016104b9565b6000828152600660209081526040909120825161055a92840190611e05565b6008546001600160a01b031633146108835760405162461bcd60e51b815260206004820181905260248201527f4f776e61626c653a2063616c6c6572206973206e6f7420746865206f776e657260448201526064016104b9565b600880546001600160a01b038381166001600160a01b0319831681179093556040519116919082907f8be0079c531659141344cd1fd0a4f28419497f9722a3daafe3b4186f6b6457e090600090a35050565b816001600160a01b0316836001600160a01b031614156111265760405162461bcd60e51b815260206004820152601960248201527f4552433732313a20617070726f766520746f2063616c6c65720000000000000060448201526064016104b9565b6001600160a01b03838116600081815260056020908152604080832094871680845294825291829020805460ff191686151590811790915591519182527f17307eab39ab6107e8899845ad3d59bd9653f200f220920489ca2b5937696c31910160405180910390a3505050565b61119e848484610c71565b6111aa84848484611411565b6108fc5760405162461bcd60e51b81526004016104b9906122a5565b60606111d182610b26565b60006111e860408051602081019091526000815290565b905060008151116112085760405180602001604052806000815250610f5d565b806112128461151e565b60405160200161122392919061215f565b6040516020818303038152906040529392505050565b6112438282610885565b61062f5761125b816001600160a01b03166014611638565b611266836020611638565b60405160200161127792919061218e565b60408051601f198184030181529082905262461bcd60e51b82526104b991600401612292565b60006103857f5685c761c6c7b1a7c5c93bce41f86796fc654eaee82962add4da1da1b1872d796112d06020850185611eba565b6112dd602086018661238a565b6040516112eb92919061214f565b6040518091039020858060400190611303919061238a565b60405161131192919061214f565b604051908190039020611327608088018861238a565b60405161133592919061214f565b60405190819003902061134b606089018961238a565b60405161135992919061214f565b60405190819003812061139f9695949392916020019586526001600160a01b0394909416602086015260408501929092526060840152608083015260a082015260c00190565b6040516020818303038152906040528051906020012061181a565b60008060006113c98585611868565b915091506113d6816118ae565b509392505050565b6113e88383611aaf565b6113f56000848484611411565b61055a5760405162461bcd60e51b81526004016104b9906122a5565b60006001600160a01b0384163b1561151357604051630a85bd0160e11b81526001600160a01b0385169063150b7a0290611455903390899088908890600401612255565b602060405180830381600087803b15801561146f57600080fd5b505af192505050801561149f575060408051601f3d908101601f1916820190925261149c918101906120cf565b60015b6114f9573d8080156114cd576040519150601f19603f3d011682016040523d82523d6000602084013e6114d2565b606091505b5080516114f15760405162461bcd60e51b81526004016104b9906122a5565b805181602001fd5b6001600160e01b031916630a85bd0160e11b149050610a0b565b506001949350505050565b6060816115425750506040805180820190915260018152600360fc1b602082015290565b8160005b811561156c578061155681612480565b91506115659050600a836123b8565b9150611546565b60008167ffffffffffffffff81111561159557634e487b7160e01b600052604160045260246000fd5b6040519080825280601f01601f1916602001820160405280156115bf576020820181803683370190505b5090505b8415610a0b576115d46001836123eb565b91506115e1600a8661249b565b6115ec9060306123a0565b60f81b81838151811061160f57634e487b7160e01b600052603260045260246000fd5b60200101906001600160f81b031916908160001a905350611631600a866123b8565b94506115c3565b606060006116478360026123cc565b6116529060026123a0565b67ffffffffffffffff81111561167857634e487b7160e01b600052604160045260246000fd5b6040519080825280601f01601f1916602001820160405280156116a2576020820181803683370190505b509050600360fc1b816000815181106116cb57634e487b7160e01b600052603260045260246000fd5b60200101906001600160f81b031916908160001a905350600f60fb1b8160018151811061170857634e487b7160e01b600052603260045260246000fd5b60200101906001600160f81b031916908160001a905350600061172c8460026123cc565b6117379060016123a0565b90505b60018111156117cb576f181899199a1a9b1b9c1cb0b131b232b360811b85600f166010811061177957634e487b7160e01b600052603260045260246000fd5b1a60f81b82828151811061179d57634e487b7160e01b600052603260045260246000fd5b60200101906001600160f81b031916908160001a90535060049490941c936117c48161242e565b905061173a565b508315610f5d5760405162461bcd60e51b815260206004820181905260248201527f537472696e67733a20686578206c656e67746820696e73756666696369656e7460448201526064016104b9565b6000610385611827611bf1565b8360405161190160f01b6020820152602281018390526042810182905260009060620160405160208183030381529060405280519060200120905092915050565b60008082516041141561189f5760208301516040840151606085015160001a61189387828585611d18565b945094505050506118a7565b506000905060025b9250929050565b60008160048111156118d057634e487b7160e01b600052602160045260246000fd5b14156118d95750565b60018160048111156118fb57634e487b7160e01b600052602160045260246000fd5b14156119495760405162461bcd60e51b815260206004820152601860248201527f45434453413a20696e76616c6964207369676e6174757265000000000000000060448201526064016104b9565b600281600481111561196b57634e487b7160e01b600052602160045260246000fd5b14156119b95760405162461bcd60e51b815260206004820152601f60248201527f45434453413a20696e76616c6964207369676e6174757265206c656e6774680060448201526064016104b9565b60038160048111156119db57634e487b7160e01b600052602160045260246000fd5b1415611a345760405162461bcd60e51b815260206004820152602260248201527f45434453413a20696e76616c6964207369676e6174757265202773272076616c604482015261756560f01b60648201526084016104b9565b6004816004811115611a5657634e487b7160e01b600052602160045260246000fd5b1415610aae5760405162461bcd60e51b815260206004820152602260248201527f45434453413a20696e76616c6964207369676e6174757265202776272076616c604482015261756560f01b60648201526084016104b9565b6001600160a01b038216611b055760405162461bcd60e51b815260206004820181905260248201527f4552433732313a206d696e7420746f20746865207a65726f206164647265737360448201526064016104b9565b6000818152600260205260409020546001600160a01b031615611b6a5760405162461bcd60e51b815260206004820152601c60248201527f4552433732313a20746f6b656e20616c7265616479206d696e7465640000000060448201526064016104b9565b6001600160a01b0382166000908152600360205260408120805460019290611b939084906123a0565b909155505060008181526002602052604080822080546001600160a01b0319166001600160a01b03861690811790915590518392907fddf252ad1be2c89b69c2b068fc378daa952ba7f163c4a11628f55a4df523b3ef908290a45050565b6000306001600160a01b037f000000000000000000000000000000000000000000000000000000000000000016148015611c4a57507f000000000000000000000000000000000000000000000000000000000000000046145b15611c7457507f000000000000000000000000000000000000000000000000000000000000000090565b50604080517f00000000000000000000000000000000000000000000000000000000000000006020808301919091527f0000000000000000000000000000000000000000000000000000000000000000828401527f000000000000000000000000000000000000000000000000000000000000000060608301524660808301523060a0808401919091528351808403909101815260c0909201909252805191012090565b6000807f7fffffffffffffffffffffffffffffff5d576e7357a4501ddfe92f46681b20a0831115611d4f5750600090506003611dfc565b8460ff16601b14158015611d6757508460ff16601c14155b15611d785750600090506004611dfc565b6040805160008082526020820180845289905260ff881692820192909252606081018690526080810185905260019060a0016020604051602081039080840390855afa158015611dcc573d6000803e3d6000fd5b5050604051601f1901519150506001600160a01b038116611df557600060019250925050611dfc565b9150600090505b94509492505050565b828054611e1190612445565b90600052602060002090601f016020900481019282611e335760008555611e79565b82601f10611e4c57805160ff1916838001178555611e79565b82800160010185558215611e79579182015b82811115611e79578251825591602001919060010190611e5e565b50611e85929150611e89565b5090565b5b80821115611e855760008155600101611e8a565b80356001600160a01b0381168114611eb557600080fd5b919050565b600060208284031215611ecb578081fd5b610f5d82611e9e565b60008060408385031215611ee6578081fd5b611eef83611e9e565b9150611efd60208401611e9e565b90509250929050565b600080600060608486031215611f1a578081fd5b611f2384611e9e565b9250611f3160208501611e9e565b9150604084013590509250925092565b60008060008060808587031215611f56578081fd5b611f5f85611e9e565b9350611f6d60208601611e9e565b925060408501359150606085013567ffffffffffffffff80821115611f90578283fd5b818701915087601f830112611fa3578283fd5b813581811115611fb557611fb56124db565b604051601f8201601f19908116603f01168101908382118183101715611fdd57611fdd6124db565b816040528281528a6020848701011115611ff5578586fd5b82602086016020830137918201602001949094529598949750929550505050565b60008060408385031215612028578182fd5b61203183611e9e565b915060208301358015158114612045578182fd5b809150509250929050565b60008060408385031215612062578182fd5b61206b83611e9e565b946020939093013593505050565b60006020828403121561208a578081fd5b5035919050565b600080604083850312156120a3578182fd5b82359150611efd60208401611e9e565b6000602082840312156120c4578081fd5b8135610f5d816124f1565b6000602082840312156120e0578081fd5b8151610f5d816124f1565b6000602082840312156120fc578081fd5b813567ffffffffffffffff811115612112578182fd5b820160c08185031215610f5d578182fd5b6000815180845261213b816020860160208601612402565b601f01601f19169290920160200192915050565b8183823760009101908152919050565b60008351612171818460208801612402565b835190830190612185818360208801612402565b01949350505050565b7f416363657373436f6e74726f6c3a206163636f756e74200000000000000000008152600083516121c6816017850160208801612402565b7001034b99036b4b9b9b4b733903937b6329607d1b60179184019182015283516121f7816028840160208801612402565b01602801949350505050565b6001600160a01b0386811682528516602082015260806040820181905281018390526000838560a08401378060a0858401015260a0601f19601f86011683010190508260608301529695505050505050565b6001600160a01b038581168252841660208201526040810183905260806060820181905260009061228890830184612123565b9695505050505050565b602081526000610f5d6020830184612123565b60208082526032908201527f4552433732313a207472616e7366657220746f206e6f6e20455243373231526560408201527131b2b4bb32b91034b6b83632b6b2b73a32b960711b606082015260800190565b6020808252602e908201527f4552433732313a2063616c6c6572206973206e6f7420746f6b656e206f776e6560408201526d1c881b9bdc88185c1c1c9bdd995960921b606082015260800190565b6000808335601e1984360301811261235b578283fd5b83018035915067ffffffffffffffff821115612375578283fd5b6020019150368190038213156118a757600080fd5b6000808335601e1984360301811261235b578182fd5b600082198211156123b3576123b36124af565b500190565b6000826123c7576123c76124c5565b500490565b60008160001904831182151516156123e6576123e66124af565b500290565b6000828210156123fd576123fd6124af565b500390565b60005b8381101561241d578181015183820152602001612405565b838111156108fc5750506000910152565b60008161243d5761243d6124af565b506000190190565b600181811c9082168061245957607f821691505b6020821081141561247a57634e487b7160e01b600052602260045260246000fd5b50919050565b6000600019821415612494576124946124af565b5060010190565b6000826124aa576124aa6124c5565b500690565b634e487b7160e01b600052601160045260246000fd5b634e487b7160e01b600052601260045260246000fd5b634e487b7160e01b600052604160045260246000fd5b6001600160e01b031981168114610aae57600080fdfea26469706673582212206095a45cbc05d9fe6e9dffe99113e03bb087f50b880a309c53781d2b350cd47864736f6c63430008040033",
  "linkReferences": {},
  "deployedLinkReferences": {}
}